{
  "contractName": "Wager",
  "abi": [
    {
      "constant": true,
      "inputs": [],
      "name": "sideOneBetTotal",
      "outputs": [
        {
          "name": "",
          "type": "uint256"
        }
      ],
      "payable": false,
      "stateMutability": "view",
      "type": "function"
    },
    {
      "constant": true,
      "inputs": [
        {
          "name": "",
          "type": "address"
        }
      ],
      "name": "uniquePlayers",
      "outputs": [
        {
          "name": "",
          "type": "bool"
        }
      ],
      "payable": false,
      "stateMutability": "view",
      "type": "function"
    },
    {
      "constant": true,
      "inputs": [
        {
          "name": "",
          "type": "uint256"
        }
      ],
      "name": "sideOnePlayers",
      "outputs": [
        {
          "name": "addr",
          "type": "address"
        },
        {
          "name": "betAmount",
          "type": "uint256"
        }
      ],
      "payable": false,
      "stateMutability": "view",
      "type": "function"
    },
    {
      "constant": true,
      "inputs": [
        {
          "name": "",
          "type": "uint256"
        }
      ],
      "name": "sideTwoPlayers",
      "outputs": [
        {
          "name": "addr",
          "type": "address"
        },
        {
          "name": "betAmount",
          "type": "uint256"
        }
      ],
      "payable": false,
      "stateMutability": "view",
      "type": "function"
    },
    {
      "constant": true,
      "inputs": [],
      "name": "sideTwoBetTotal",
      "outputs": [
        {
          "name": "",
          "type": "uint256"
        }
      ],
      "payable": false,
      "stateMutability": "view",
      "type": "function"
    },
    {
      "constant": true,
      "inputs": [],
      "name": "test",
      "outputs": [
        {
          "name": "",
          "type": "string"
        }
      ],
      "payable": false,
      "stateMutability": "view",
      "type": "function"
    },
    {
      "inputs": [],
      "payable": true,
      "stateMutability": "payable",
      "type": "constructor"
    },
    {
      "constant": false,
      "inputs": [
        {
          "name": "_side",
          "type": "uint256"
        }
      ],
      "name": "play",
      "outputs": [],
      "payable": true,
      "stateMutability": "payable",
      "type": "function"
    },
    {
      "constant": false,
      "inputs": [
        {
          "name": "_winningSide",
          "type": "uint256"
        }
      ],
      "name": "draw",
      "outputs": [],
      "payable": false,
      "stateMutability": "nonpayable",
      "type": "function"
    }
  ],
  "bytecode": "0x60c0604052601060808190527f6973207468697320776f726b696e673f0000000000000000000000000000000060a090815261003e9160029190610044565b506100df565b828054600181600116156101000203166002900490600052602060002090601f016020900481019282601f1061008557805160ff19168380011785556100b2565b828001600101855582156100b2579182015b828111156100b2578251825591602001919060010190610097565b506100be9291506100c2565b5090565b6100dc91905b808211156100be57600081556001016100c8565b90565b610692806100ee6000396000f30060806040526004361061008d5763ffffffff7c01000000000000000000000000000000000000000000000000000000006000350416630a048b90811461009257806335601688146100b95780633b304147146100fb5780635d5f2ed3146101155780636898f82b1461015d5780639b6c40c814610168578063f838126814610180578063f8a8fd6d14610195575b600080fd5b34801561009e57600080fd5b506100a761021f565b60408051918252519081900360200190f35b3480156100c557600080fd5b506100e773ffffffffffffffffffffffffffffffffffffffff60043516610225565b604080519115158252519081900360200190f35b34801561010757600080fd5b5061011360043561023a565b005b34801561012157600080fd5b5061012d6004356103bb565b6040805173ffffffffffffffffffffffffffffffffffffffff909316835260208301919091528051918290030190f35b6101136004356103fe565b34801561017457600080fd5b5061012d6004356105c7565b34801561018c57600080fd5b506100a76105d5565b3480156101a157600080fd5b506101aa6105db565b6040805160208082528351818301528351919283929083019185019080838360005b838110156101e45781810151838201526020016101cc565b50505050905090810190601f1680156102115780820380516001836020036101000a031916815260200191505b509250505060405180910390f35b60005481565b60056020526000908152604090205460ff1681565b6000806000836001141561030157600091505b6003548210156102fc57600380548390811061026557fe5b90600052602060002090600202016001015492506001546000548481151561028957fe5b04028301905060038281548110151561029e57fe5b6000918252602082206002909102015460405173ffffffffffffffffffffffffffffffffffffffff9091169183156108fc02918491818181858888f193505050501580156102f0573d6000803e3d6000fd5b5060019091019061024d565b6103b5565b600091505b6004548210156103b557600380548390811061031e57fe5b90600052602060002090600202016001015492506000546000548481151561034257fe5b04028301905060048281548110151561035757fe5b6000918252602082206002909102015460405173ffffffffffffffffffffffffffffffffffffffff9091169183156108fc02918491818181858888f193505050501580156103a9573d6000803e3d6000fd5b50600190910190610306565b50505050565b60038054829081106103c957fe5b60009182526020909120600290910201805460019091015473ffffffffffffffffffffffffffffffffffffffff909116915082565b66038d7ea4c6800034101561041257600080fd5b3360009081526005602052604090205460ff161561042f57600080fd5b80600114156104f25760408051808201909152338152346020820181815260038054600181018255600091825293517fc2575a0e9e593c00f959f8c92f12db2869c3395a3b0502d05e2516446f71f85b6002909502948501805473ffffffffffffffffffffffffffffffffffffffff191673ffffffffffffffffffffffffffffffffffffffff90921691909117905590517fc2575a0e9e593c00f959f8c92f12db2869c3395a3b0502d05e2516446f71f85c9093019290925581540190556105aa565b604080518082019091523381523460208201818152600480546001808201835560009290925293517f8a35acfbc15ff81a39ae7d344fd709f28e8600b4aa8c65c6b64bfe7fe36bd19b6002909502948501805473ffffffffffffffffffffffffffffffffffffffff191673ffffffffffffffffffffffffffffffffffffffff90921691909117905590517f8a35acfbc15ff81a39ae7d344fd709f28e8600b4aa8c65c6b64bfe7fe36bd19c9093019290925581540190555b50336000908152600560205260409020805460ff19166001179055565b60048054829081106103c957fe5b60015481565b6002805460408051602060018416156101000260001901909316849004601f8101849004840282018401909252818152929183018282801561065e5780601f106106335761010080835404028352916020019161065e565b820191906000526020600020905b81548152906001019060200180831161064157829003601f168201915b5050505050815600a165627a7a72305820197799323547c87fb6fead450399e460c5c473f28ba062802fc96c89b233eef20029",
  "source": "pragma solidity ^0.4.24;\n\ncontract Wager {\n    \n    uint public sideOneBetTotal;\n    uint public sideTwoBetTotal;\n\n    string public test;\n\n    Player[] public sideOnePlayers;\n    Player[] public sideTwoPlayers;\n\n    struct Player {\n        address addr;\n        uint betAmount;\n    }\n    \n    mapping (address => bool) public uniquePlayers;\n    \n    constructor() public payable {\n        test = \"is this working?\";\n    }\n\n    function play(uint _side) payable public {\n        require (msg.value >= 1000000000000000);\n        require (uniquePlayers[msg.sender] == false);\n        if (_side == 1) {\n            sideOnePlayers.push(Player(msg.sender, msg.value));\n            sideOneBetTotal += msg.value;\n        } else {\n            sideTwoPlayers.push(Player(msg.sender, msg.value));\n            sideTwoBetTotal += msg.value;\n        }\n        uniquePlayers[msg.sender] = true;\n    }\n    \n    function draw(uint _winningSide) external {\n        \n        uint betAmount;\n        uint i;\n        uint winnings;\n        \n        if (_winningSide == 1) {\n            for (i = 0; i < sideOnePlayers.length; i++){\n                betAmount = sideOnePlayers[i].betAmount;\n                winnings = betAmount + ((betAmount/sideOneBetTotal) * sideTwoBetTotal);\n                sideOnePlayers[i].addr.transfer(winnings);\n            }\n        } else {\n            for (i = 0; i < sideTwoPlayers.length; i++){\n                betAmount = sideOnePlayers[i].betAmount;\n                winnings = betAmount + ((betAmount/sideOneBetTotal) * sideOneBetTotal);\n                sideTwoPlayers[i].addr.transfer(winnings);\n            }\n        }\n    }\n}\n",
  "sourcePath": "/Users/kristoferjenk/drizzle/contracts/Wager.sol",
  "compiler": {
    "name": "solc",
    "version": "0.4.24+commit.e67f0147.Emscripten.clang"
  },
  "schemaVersion": "2.0.1",
  "updatedAt": "2018-08-21T04:25:52.297Z"
}