{
  "contractName": "Wager",
  "abi": [
    {
      "constant": true,
      "inputs": [],
      "name": "thisContractAddr",
      "outputs": [
        {
          "name": "",
          "type": "address"
        }
      ],
      "payable": false,
      "stateMutability": "view",
      "type": "function"
    },
    {
      "constant": true,
      "inputs": [],
      "name": "sideOneBetTotal",
      "outputs": [
        {
          "name": "",
          "type": "uint256"
        }
      ],
      "payable": false,
      "stateMutability": "view",
      "type": "function"
    },
    {
      "constant": true,
      "inputs": [
        {
          "name": "",
          "type": "address"
        }
      ],
      "name": "uniquePlayers",
      "outputs": [
        {
          "name": "",
          "type": "bool"
        }
      ],
      "payable": false,
      "stateMutability": "view",
      "type": "function"
    },
    {
      "constant": true,
      "inputs": [
        {
          "name": "",
          "type": "uint256"
        }
      ],
      "name": "sideOnePlayers",
      "outputs": [
        {
          "name": "addr",
          "type": "address"
        },
        {
          "name": "betAmount",
          "type": "uint256"
        }
      ],
      "payable": false,
      "stateMutability": "view",
      "type": "function"
    },
    {
      "constant": true,
      "inputs": [
        {
          "name": "",
          "type": "uint256"
        }
      ],
      "name": "sideTwoPlayers",
      "outputs": [
        {
          "name": "addr",
          "type": "address"
        },
        {
          "name": "betAmount",
          "type": "uint256"
        }
      ],
      "payable": false,
      "stateMutability": "view",
      "type": "function"
    },
    {
      "constant": true,
      "inputs": [],
      "name": "sideTwoBetTotal",
      "outputs": [
        {
          "name": "",
          "type": "uint256"
        }
      ],
      "payable": false,
      "stateMutability": "view",
      "type": "function"
    },
    {
      "constant": true,
      "inputs": [],
      "name": "test",
      "outputs": [
        {
          "name": "",
          "type": "string"
        }
      ],
      "payable": false,
      "stateMutability": "view",
      "type": "function"
    },
    {
      "inputs": [
        {
          "name": "_contactAddress",
          "type": "address"
        }
      ],
      "payable": true,
      "stateMutability": "payable",
      "type": "constructor"
    },
    {
      "constant": false,
      "inputs": [
        {
          "name": "_side",
          "type": "uint256"
        },
        {
          "name": "_amount",
          "type": "uint256"
        }
      ],
      "name": "play",
      "outputs": [],
      "payable": true,
      "stateMutability": "payable",
      "type": "function"
    },
    {
      "constant": false,
      "inputs": [
        {
          "name": "_winningSide",
          "type": "uint256"
        }
      ],
      "name": "draw",
      "outputs": [],
      "payable": false,
      "stateMutability": "nonpayable",
      "type": "function"
    }
  ],
  "bytecode": "0x6080604081905260048054600160a060020a031916301790556020806109a8833981016040525160038054600160a060020a031916600160a060020a03909216919091179055610954806100546000396000f3006080604052600436106100985763ffffffff7c01000000000000000000000000000000000000000000000000000000006000350416630626c55b811461009d5780630a048b90146100db57806335601688146101025780633b304147146101445780635d5f2ed31461015e5780637bc49a95146101a65780639b6c40c8146101b4578063f8381268146101cc578063f8a8fd6d146101e1575b600080fd5b3480156100a957600080fd5b506100b261026b565b6040805173ffffffffffffffffffffffffffffffffffffffff9092168252519081900360200190f35b3480156100e757600080fd5b506100f0610287565b60408051918252519081900360200190f35b34801561010e57600080fd5b5061013073ffffffffffffffffffffffffffffffffffffffff6004351661028d565b604080519115158252519081900360200190f35b34801561015057600080fd5b5061015c6004356102a2565b005b34801561016a57600080fd5b50610176600435610535565b6040805173ffffffffffffffffffffffffffffffffffffffff909316835260208301919091528051918290030190f35b61015c600435602435610578565b3480156101c057600080fd5b50610176600435610889565b3480156101d857600080fd5b506100f0610897565b3480156101ed57600080fd5b506101f661089d565b6040805160208082528351818301528351919283929083019185019080838360005b83811015610230578181015183820152602001610218565b50505050905090810190601f16801561025d5780820380516001836020036101000a031916815260200191505b509250505060405180910390f35b60045473ffffffffffffffffffffffffffffffffffffffff1681565b60005481565b60076020526000908152604090205460ff1681565b6003546000908190819073ffffffffffffffffffffffffffffffffffffffff1660018514156103fb57600092505b6005548310156103f65760058054849081106102e857fe5b90600052602060002090600202016001015493506001546000548581151561030c57fe5b0402840191508073ffffffffffffffffffffffffffffffffffffffff1663a9059cbb60058581548110151561033d57fe5b60009182526020808320600290920290910154604080517c010000000000000000000000000000000000000000000000000000000063ffffffff871602815273ffffffffffffffffffffffffffffffffffffffff9092166004830152602482018890525160448083019491928390030190829087803b1580156103bf57600080fd5b505af11580156103d3573d6000803e3d6000fd5b505050506040513d60208110156103e957600080fd5b50506001909201916102d0565b610526565b600092505b60065483101561052657600580548490811061041857fe5b90600052602060002090600202016001015493506000546000548581151561043c57fe5b0402840191508073ffffffffffffffffffffffffffffffffffffffff1663a9059cbb60068581548110151561046d57fe5b60009182526020808320600290920290910154604080517c010000000000000000000000000000000000000000000000000000000063ffffffff871602815273ffffffffffffffffffffffffffffffffffffffff9092166004830152602482018890525160448083019491928390030190829087803b1580156104ef57600080fd5b505af1158015610503573d6000803e3d6000fd5b505050506040513d602081101561051957600080fd5b5050600190920191610400565b50506000808055600155505050565b600580548290811061054357fe5b60009182526020909120600290910201805460019091015473ffffffffffffffffffffffffffffffffffffffff909116915082565b3360009081526007602052604081205460ff161561059557600080fd5b50600354604080517fdd62ed3e000000000000000000000000000000000000000000000000000000008152336004820152306024820152905173ffffffffffffffffffffffffffffffffffffffff90921691600091839163dd62ed3e9160448082019260209290919082900301818787803b15801561061357600080fd5b505af1158015610627573d6000803e3d6000fd5b505050506040513d602081101561063d57600080fd5b50511161064957600080fd5b826001141561070c57604080518082019091523381526020810183815260058054600181018255600091825292517f036b6384b5eca791c62761152d0c79bb0604c104a5fb6f4eb0703f3154bb3db06002909402938401805473ffffffffffffffffffffffffffffffffffffffff191673ffffffffffffffffffffffffffffffffffffffff90921691909117905590517f036b6384b5eca791c62761152d0c79bb0604c104a5fb6f4eb0703f3154bb3db1909201919091558054830190556107c4565b6040805180820190915233815260208101838152600680546001808201835560009290925292517ff652222313e28459528d920b65115c16c04f3efc82aaedc97be59f3f377c0d3f6002909402938401805473ffffffffffffffffffffffffffffffffffffffff191673ffffffffffffffffffffffffffffffffffffffff90921691909117905590517ff652222313e28459528d920b65115c16c04f3efc82aaedc97be59f3f377c0d40909201919091558054830190555b336000818152600760209081526040808320805460ff1916600117905580517f23b872dd0000000000000000000000000000000000000000000000000000000081526004810194909452306024850152604484018690525173ffffffffffffffffffffffffffffffffffffffff8516936323b872dd9360648083019493928390030190829087803b15801561085857600080fd5b505af115801561086c573d6000803e3d6000fd5b505050506040513d602081101561088257600080fd5b5050505050565b600680548290811061054357fe5b60015481565b6002805460408051602060018416156101000260001901909316849004601f810184900484028201840190925281815292918301828280156109205780601f106108f557610100808354040283529160200191610920565b820191906000526020600020905b81548152906001019060200180831161090357829003601f168201915b5050505050815600a165627a7a72305820d5c67a4534a481ecd901afb4f8e79186a50f25f9cf8607a0c1e1feebd0dd5a520029",
  "source": "pragma solidity ^0.4.24;\n\nimport \"./PredictiveBetToken.sol\";\n\ncontract Wager {\n    \n    uint public sideOneBetTotal;\n    uint public sideTwoBetTotal;\n\n    string public test;\n\n    address Owner;\n\n    address public thisContractAddr = address(this);\n    \n    Player[] public sideOnePlayers;\n    Player[] public sideTwoPlayers;\n\n    struct Player {\n        address addr;\n        uint betAmount;\n    }\n    \n    mapping (address => bool) public uniquePlayers;\n    \n    constructor(address _contactAddress) public payable {\n        Owner = _contactAddress;\n    }\n\n    modifier onlyOwnerOf() {\n        require(msg.sender == Owner);\n        _;\n    }\n\n    function play(uint _side, uint _amount) payable public {\n        require (uniquePlayers[msg.sender] == false);\n        PredictiveBetToken instance = PredictiveBetToken(Owner);\n\t\trequire(instance.allowance(msg.sender, this) > 0);\n\t\t\n        if (_side == 1) {\n            sideOnePlayers.push(Player(msg.sender, _amount));\n            sideOneBetTotal += _amount;\n        } else {\n            sideTwoPlayers.push(Player(msg.sender, _amount));\n            sideTwoBetTotal += _amount;\n        }\n        uniquePlayers[msg.sender] = true;\n        instance.transferFrom(msg.sender, address(this), _amount);\n    }\n    \n    function draw(uint _winningSide) external {\n        \n        uint betAmount;\n        uint i;\n        uint winnings;\n        PredictiveBetToken instance = PredictiveBetToken(Owner);\n\n        \n        if (_winningSide == 1) {\n            for (i = 0; i < sideOnePlayers.length; i++){\n                betAmount = sideOnePlayers[i].betAmount;\n                winnings = betAmount + ((betAmount/sideOneBetTotal) * sideTwoBetTotal);\n                // sideOnePlayers[i].addr.transfer(winnings);\n                instance.transfer(sideOnePlayers[i].addr, winnings);\n            }\n        } else {\n            for (i = 0; i < sideTwoPlayers.length; i++){\n                betAmount = sideOnePlayers[i].betAmount;\n                winnings = betAmount + ((betAmount/sideOneBetTotal) * sideOneBetTotal);\n                // sideTwoPlayers[i].addr.transfer(winnings);\n                instance.transfer(sideTwoPlayers[i].addr, winnings);\n\n            }\n        }\n       sideOneBetTotal = 0;\n       sideTwoBetTotal = 0;\n\n    }\n}\n",
  "sourcePath": "/Users/kristoferjenk/drizzle/contracts/Wager.sol",
  "compiler": {
    "name": "solc",
    "version": "0.4.24+commit.e67f0147.Emscripten.clang"
  },
  "schemaVersion": "2.0.1",
  "updatedAt": "2018-08-23T05:43:36.072Z"
}